{
  "contractName": "Voting",
  "abi": [
    {
      "inputs": [],
      "stateMutability": "nonpayable",
      "type": "constructor"
    },
    {
      "anonymous": false,
      "inputs": [
        {
          "indexed": true,
          "internalType": "uint256",
          "name": "candidateId",
          "type": "uint256"
        },
        {
          "indexed": false,
          "internalType": "string",
          "name": "name",
          "type": "string"
        }
      ],
      "name": "CandidateAdded",
      "type": "event"
    },
    {
      "anonymous": false,
      "inputs": [
        {
          "indexed": true,
          "internalType": "uint256",
          "name": "round",
          "type": "uint256"
        }
      ],
      "name": "NewVotingRoundStarted",
      "type": "event"
    },
    {
      "anonymous": false,
      "inputs": [
        {
          "indexed": true,
          "internalType": "address",
          "name": "voter",
          "type": "address"
        },
        {
          "indexed": true,
          "internalType": "uint256",
          "name": "candidateId",
          "type": "uint256"
        },
        {
          "indexed": true,
          "internalType": "uint256",
          "name": "round",
          "type": "uint256"
        }
      ],
      "name": "Voted",
      "type": "event"
    },
    {
      "inputs": [
        {
          "internalType": "uint256",
          "name": "",
          "type": "uint256"
        }
      ],
      "name": "candidates",
      "outputs": [
        {
          "internalType": "string",
          "name": "name",
          "type": "string"
        },
        {
          "internalType": "uint256",
          "name": "voteCount",
          "type": "uint256"
        }
      ],
      "stateMutability": "view",
      "type": "function"
    },
    {
      "inputs": [],
      "name": "candidatesCount",
      "outputs": [
        {
          "internalType": "uint256",
          "name": "",
          "type": "uint256"
        }
      ],
      "stateMutability": "view",
      "type": "function"
    },
    {
      "inputs": [],
      "name": "currentRound",
      "outputs": [
        {
          "internalType": "uint256",
          "name": "",
          "type": "uint256"
        }
      ],
      "stateMutability": "view",
      "type": "function"
    },
    {
      "inputs": [],
      "name": "startNewVotingRound",
      "outputs": [],
      "stateMutability": "nonpayable",
      "type": "function"
    },
    {
      "inputs": [
        {
          "internalType": "uint256",
          "name": "_candidateId",
          "type": "uint256"
        }
      ],
      "name": "vote",
      "outputs": [],
      "stateMutability": "nonpayable",
      "type": "function"
    },
    {
      "inputs": [
        {
          "internalType": "address",
          "name": "",
          "type": "address"
        },
        {
          "internalType": "uint256",
          "name": "",
          "type": "uint256"
        }
      ],
      "name": "voterRounds",
      "outputs": [
        {
          "internalType": "bool",
          "name": "",
          "type": "bool"
        }
      ],
      "stateMutability": "view",
      "type": "function"
    }
  ],
  "bytecode": "6080604052600160035534801561001557600080fd5b5060408051808201909152600b81526a43616e646964617465203160a81b602082015261004190610071565b60408051808201909152600b81526a21b0b73234b230ba32901960a91b602082015261006c90610071565b6102d5565b6040805180820182528281526000602080830182905260025482526001905291909120815181906100a290826101a1565b50602082015181600101559050506002547fe83b2a43e7e82d975c8a0a6d2f045153c869e111136a34d1889ab7b598e396a3826040516100e29190610260565b60405180910390a2600280549060006100fa836102ae565b919050555050565b634e487b7160e01b600052604160045260246000fd5b600181811c9082168061012c57607f821691505b60208210810361014c57634e487b7160e01b600052602260045260246000fd5b50919050565b601f82111561019c57600081815260208120601f850160051c810160208610156101795750805b601f850160051c820191505b8181101561019857828155600101610185565b5050505b505050565b81516001600160401b038111156101ba576101ba610102565b6101ce816101c88454610118565b84610152565b602080601f83116001811461020357600084156101eb5750858301515b600019600386901b1c1916600185901b178555610198565b600085815260208120601f198616915b8281101561023257888601518255948401946001909101908401610213565b50858210156102505787850151600019600388901b60f8161c191681555b5050505050600190811b01905550565b600060208083528351808285015260005b8181101561028d57858101830151858201604001528201610271565b506000604082860101526040601f19601f8301168501019250505092915050565b6000600182016102ce57634e487b7160e01b600052601160045260246000fd5b5060010190565b610498806102e46000396000f3fe608060405234801561001057600080fd5b50600436106100625760003560e01c80630121b93f146100675780632d35a8a21461007c5780633477ee2e146100985780635e777c1b146100b95780638a19c8bc146100f4578063b74d149c146100fd575b600080fd5b61007a61007536600461035b565b610105565b005b61008560025481565b6040519081526020015b60405180910390f35b6100ab6100a636600461035b565b610242565b60405161008f929190610374565b6100e46100c73660046103c9565b600060208181529281526040808220909352908152205460ff1681565b604051901515815260200161008f565b61008560035481565b61007a6102e6565b33600090815260208181526040808320600354845290915290205460ff16156101835760405162461bcd60e51b815260206004820152602560248201527f596f75206861766520616c726561647920766f74656420696e2074686973207260448201526437bab7321760d91b60648201526084015b60405180910390fd5b60025481106101cc5760405162461bcd60e51b815260206004820152601560248201527424b73b30b634b21031b0b73234b230ba329024a21760591b604482015260640161017a565b3360009081526020818152604080832060035484528252808320805460ff191660019081179091558484529182905282200180549161020a83610401565b9091555050600354604051829033907fea66f58e474bc09f580000e81f31b334d171db387d0c6098ba47bd897741679b90600090a450565b60016020526000908152604090208054819061025d90610428565b80601f016020809104026020016040519081016040528092919081815260200182805461028990610428565b80156102d65780601f106102ab576101008083540402835291602001916102d6565b820191906000526020600020905b8154815290600101906020018083116102b957829003601f168201915b5050505050908060010154905082565b600380549060006102f683610401565b919050555060005b60025481101561032c576000818152600160208190526040822001558061032481610401565b9150506102fe565b506003546040517f14145ac857cf9dc1af0dac1629905781df99f6d5ea5de68128667ee0caf922b490600090a2565b60006020828403121561036d57600080fd5b5035919050565b604081526000835180604084015260005b818110156103a25760208187018101516060868401015201610385565b506000606082850101526060601f19601f8301168401019150508260208301529392505050565b600080604083850312156103dc57600080fd5b82356001600160a01b03811681146103f357600080fd5b946020939093013593505050565b60006001820161042157634e487b7160e01b600052601160045260246000fd5b5060010190565b600181811c9082168061043c57607f821691505b60208210810361045c57634e487b7160e01b600052602260045260246000fd5b5091905056fea26469706673582212204e294b0282cbf4f87802cd9da19bc63c652be315090e81c697985cfc35efb60964736f6c63430008130033",
  "sourcePath": "/Users/toheriman/Dev/Seedify/code-challenge/Voting.sol",
  "compiler": {
    "name": "solc",
    "version": "0.8.19+commit.7dd6d404"
  },
  "functionHashes": {
    "candidates(uint256)": "3477ee2e",
    "candidatesCount()": "2d35a8a2",
    "currentRound()": "8a19c8bc",
    "startNewVotingRound()": "b74d149c",
    "vote(uint256)": "0121b93f",
    "voterRounds(address,uint256)": "5e777c1b"
  },
  "gasEstimates": {
    "creation": {
      "codeDepositCost": "235200",
      "executionCost": "infinite",
      "totalCost": "infinite"
    },
    "external": {
      "candidates(uint256)": "infinite",
      "candidatesCount()": "2284",
      "currentRound()": "2350",
      "startNewVotingRound()": "infinite",
      "vote(uint256)": "61513",
      "voterRounds(address,uint256)": "2627"
    },
    "internal": {
      "_addCandidate(string memory)": "infinite"
    }
  }
}